:100000000C9446000C9465000C9465000C946500FB
:100010000C9465000C9465000C9465000C946500CC
:100020000C9465000C9465000C9465000C946500BC
:100030000C9465000C941E020C9465000C946500F1
:100040000C9465000C9465000C9465000C9465009C
:100050000C9465000C9465000C9465000C9465008C
:100060000C9465000C9465000C9465000C9465007C
:100070000C9465000C9465000C9465000C9465006C
:100080000C9465000C9465000C94650011241FBE4F
:10009000CFEFD0E4DEBFCDBF11E0A0E0B1E0EEE5F0
:1000A000F9E000E00BBF02C007900D92A231B1074A
:1000B000D9F721E0A2E1B1E001C01D92A432B2075C
:1000C000E1F70E9444030C94AD040C940000CF931C
:1000D000DF9300D01F92CDB7DEB789836A834B834D
:1000E0008B81882371F08A81282F30E081E090E0B5
:1000F00002C0880F991F2A95E2F7982F8981892BD2
:100100000EC08A81282F30E081E090E002C0880F85
:10011000991F2A95E2F7982F9095898189230F904E
:100120000F900F90DF91CF910895CF93DF9300D080
:10013000CDB7DEB789836A838A81282F30E081E0DA
:1001400090E002C0880F991F2A95E2F7982F8981C5
:1001500089230F900F90DF91CF9108950F931F93F4
:10016000CF93DF93CDB7DEB708E210E040E064E064
:100170008FEF0E946700F8018083000086E290E024
:10018000FC018081809560E00E949500882311F039
:1001900081E3D3C086E290E0FC018081809561E03C
:1001A0000E949500882311F084E3C7C086E290E0A6
:1001B000FC018081809562E00E949500882311F007
:1001C00087E3BBC086E290E0FC018081809563E01C
:1001D0000E949500882311F08AE2AFC008E210E087
:1001E00040E065E08FEF0E946700F8018083000027
:1001F00086E290E0FC018081809560E00E9495009D
:10020000882311F082E399C086E290E0FC018081AE
:10021000809561E00E949500882311F085E38DC0F0
:1002200086E290E0FC018081809562E00E9495006A
:10023000882311F088E381C086E290E0FC01808190
:10024000809563E00E949500882311F080E375C0DB
:1002500008E210E040E066E08FEF0E946700F801DE
:100260008083000086E290E0FC018081809560E060
:100270000E949500882311F083E35FC086E290E03E
:10028000FC018081809561E00E949500882311F037
:1002900086E353C086E290E0FC018081809562E0B5
:1002A0000E949500882311F089E347C086E290E020
:1002B000FC018081809563E00E949500882311F005
:1002C00083E23BC008E210E040E067E08FEF0E946D
:1002D0006700F8018083000086E290E0FC018081E5
:1002E000809560E00E949500882311F081E425C08C
:1002F00086E290E0FC018081809561E00E9495009B
:10030000882311F082E419C086E290E0FC0180812C
:10031000809562E00E949500882311F083E40DC06F
:1003200086E290E0FC018081809563E00E94950068
:10033000882311F084E401C080E0DF91CF911F9108
:100340000F910895CF93DF9300D000D0CDB7DEB7E3
:1003500069837A838B839C8389819A81AB81BC81F9
:100360008093000190930101A0930201B0930301D7
:100370008091000190910101A0910201B0910301CF
:100380008093130190931401A0931501B09316016B
:1003900000000F900F900F900F90DF91CF91089574
:1003A000CF93DF93CDB7DEB781E890E02BE0FC017F
:1003B000208388E890E02DE730E0FC013183208342
:1003C0008FE690E022E0FC01208384E890E0FC01CD
:1003D000118210828091000190910101A09102018F
:1003E000B09103018093130190931401A093150120
:1003F000B09316018FE590E02FE530E0F901208100
:100400002068FC0120830000DF91CF910895CF93F5
:10041000DF93CDB7DEB781E890E0FC0110820000E9
:10042000DF91CF910895CF93DF93CDB7DEB781E011
:10043000809312010000DF91CF9108951F920F92D7
:1004400000905F000F92112400905B000F922F9399
:100450003F934F935F936F937F938F939F93AF934C
:10046000BF93EF93FF93CF93DF93CDB7DEB7809128
:10047000130190911401A0911501B09116010197FB
:10048000A109B1098093130190931401A093150160
:10049000B09316018091130190911401A091150160
:1004A000B0911601892B8A2B8B2B91F40E94130299
:1004B0008091000190910101A0910201B09103018E
:1004C0008093130190931401A0931501B09316012A
:1004D0000000DF91CF91FF91EF91BF91AF919F917C
:1004E0008F917F916F915F914F913F912F910F90DD
:1004F00000925B000F9000925F000F901F90189584
:10050000CF93DF9300D01F92CDB7DEB789837B8373
:100510006A8389818A3031F48A819B81BC018DE0B4
:100520000E94800280EC90E0FC018081882F90E0A6
:1005300080729927892BB1F386EC90E02981FC0128
:10054000208380E090E00F900F900F90DF91CF918B
:100550000895CF93DF93CDB7DEB72C970FB6F894FD
:10056000DEBF0FBECDBF6D837E838F8398872987C3
:100570003A874B875C878D819E81AF81B8852985BD
:100580003A854B855C85BC01CD010E948B04DC0162
:10059000CB0189839A83AB83BC8389819A81AB81A8
:1005A000BC81892B8A2B8B2B29F489859A85AB8575
:1005B000BC8511C089859A85AB85BC858D839E835A
:1005C000AF83B88789819A81AB81BC8189879A87FB
:1005D000AB87BC87D0CFBC01CD012C960FB6F89469
:1005E000DEBF0FBECDBFDF91CF910895CF93DF93D4
:1005F00000D01F92CDB7DEB79B838A830E94AE00E6
:1006000089838A819B818130910551F082309105E7
:10061000A1F0892BF9F481E090E09B838A831AC0D2
:100620008981882329F481E090E09B838A8312C02A
:1006300082E090E09B838A830DC08981882329F41E
:1006400081E090E09B838A8304C082E090E09B83FA
:100650008A8300008A819B818130910519F002977D
:1006600031F00BC085E290E0FC01108206C085E20B
:1006700090E020E8FC012083000000000F900F9024
:100680000F90DF91CF9108950F931F93CF93DF9336
:10069000CDB7DEB72B970FB6F894DEBF0FBECDBF38
:1006A00084E290E0FC01108285E290E02FEFFC01F3
:1006B000208387E290E020EFFC01208388E290E035
:1006C0002FE0FC01208387E191E09B878A8781E00E
:1006D00090E098878F838FEF8987898580931701B2
:1006E00085E090E0A0E0B0E08093180190931901BC
:1006F000A0931A01B0931B018091180190911901E8
:10070000A0911A01B0911B0180931C0190931D01CF
:10071000A0931E01B0931F0186EF92E090932101F8
:10072000809320018A859B85FC0181819281A38130
:10073000B4818B839C83AD83BE8381E090E09A83F8
:10074000898325C089819A81880F991F9E012F5F17
:100750003F4F820F931F0996FC0180819181FC011C
:1007600021813281438154818B819C81AD81BE8105
:10077000BC01CD010E94A902DC01CB018B839C83CB
:10078000AD83BE8389819A8101969A838983298169
:100790003A818F81988528173907A0F28B819C8137
:1007A000AD81BE81BC01CD010E94A2010E94D00199
:1007B0001A821982A0C089819A81880F991F9E018F
:1007C0002F5F3F4F820F931F0996FC01808191811B
:1007D000FC01258136814781508589819A81880F66
:1007E000991FBE016F5F7F4F860F971F0996FC010F
:1007F00080819181FC0181819281A381B48128173C
:1008000039074A075B0709F045C089819A81880F3B
:10081000991F9E012F5F3F4F820F931F0996FC0186
:100820000081118189819A81880F991F9E012F5F14
:100830003F4F820F931F0996FC0180819181FC013B
:100840002185328589819A81880F991FAE014F5F7A
:100850005F4F840F951F0996FC0180819181FC01F7
:100860008081082E000C990BF9010995F80180830D
:1008700089819A81880F991F9E012F5F3F4F820FB8
:10088000931F0996FC0180819181FC0115821682DB
:100890001782108689819A81880F991F9E012F5F88
:1008A0003F4F820F931F0996FC01608171818981FE
:1008B0009A81880F991F9E012F5F3F4F820F931FD0
:1008C0000996FC0180819181FC0125813681478157
:1008D00050858B819C81AD81BE81820F931FA41FA7
:1008E000B51FFB0185839683A783B08789819A8191
:1008F00001969A83898329813A818F819885281767
:10090000390708F458CF0000809112018823E1F3E1
:10091000109212014DCFA1E21A2EAA1BBB1BFD01A2
:100920000DC0AA1FBB1FEE1FFF1FA217B307E407CE
:10093000F50720F0A21BB30BE40BF50B661F771F26
:10094000881F991F1A9469F7609570958095909506
:0E0950009B01AC01BD01CF010895F894FFCFCB
:10095E000100000000000002000000008002000004
:02096E00000087
:00000001FF
