:100000000C9446000C9465000C9465000C946500FB
:100010000C9465000C9465000C9465000C946500CC
:100020000C9465000C9465000C9465000C946500BC
:100030000C9465000C941E020C9465000C946500F1
:100040000C9465000C9465000C9465000C9465009C
:100050000C9465000C9465000C9465000C9465008C
:100060000C9465000C9465000C9465000C9465007C
:100070000C9465000C9465000C9465000C9465006C
:100080000C9465000C9465000C94650011241FBE4F
:10009000CFEFD0E4DEBFCDBF11E0A0E0B1E0EEE9EC
:1000A000FAE000E00BBF02C007900D92A831B10743
:1000B000D9F721E0A8E1B1E001C01D92A433B20755
:1000C000E1F70E94BD030C944D050C940000CF9302
:1000D000DF9300D01F92CDB7DEB789836A834B834D
:1000E0008B81882371F08A81282F30E081E090E0B5
:1000F00002C0880F991F2A95E2F7982F8981892BD2
:100100000EC08A81282F30E081E090E002C0880F85
:10011000991F2A95E2F7982F9095898189230F904E
:100120000F900F90DF91CF910895CF93DF9300D080
:10013000CDB7DEB789836A838A81282F30E081E0DA
:1001400090E002C0880F991F2A95E2F7982F8981C5
:1001500089230F900F90DF91CF9108950F931F93F4
:10016000CF93DF93CDB7DEB708E210E040E064E064
:100170008FEF0E946700F8018083000086E290E024
:10018000FC018081809560E00E949500882311F039
:1001900081E3D3C086E290E0FC018081809561E03C
:1001A0000E949500882311F084E3C7C086E290E0A6
:1001B000FC018081809562E00E949500882311F007
:1001C00087E3BBC086E290E0FC018081809563E01C
:1001D0000E949500882311F08AE2AFC008E210E087
:1001E00040E065E08FEF0E946700F8018083000027
:1001F00086E290E0FC018081809560E00E9495009D
:10020000882311F082E399C086E290E0FC018081AE
:10021000809561E00E949500882311F085E38DC0F0
:1002200086E290E0FC018081809562E00E9495006A
:10023000882311F088E381C086E290E0FC01808190
:10024000809563E00E949500882311F080E375C0DB
:1002500008E210E040E066E08FEF0E946700F801DE
:100260008083000086E290E0FC018081809560E060
:100270000E949500882311F083E35FC086E290E03E
:10028000FC018081809561E00E949500882311F037
:1002900086E353C086E290E0FC018081809562E0B5
:1002A0000E949500882311F089E347C086E290E020
:1002B000FC018081809563E00E949500882311F005
:1002C00083E23BC008E210E040E067E08FEF0E946D
:1002D0006700F8018083000086E290E0FC018081E5
:1002E000809560E00E949500882311F081E425C08C
:1002F00086E290E0FC018081809561E00E9495009B
:10030000882311F082E419C086E290E0FC0180812C
:10031000809562E00E949500882311F083E40DC06F
:1003200086E290E0FC018081809563E00E94950068
:10033000882311F084E401C080E0DF91CF911F9108
:100340000F910895CF93DF9300D000D0CDB7DEB7E3
:1003500069837A838B839C8389819A81AB81BC81F9
:100360008093000190930101A0930201B0930301D7
:100370008091000190910101A0910201B0910301CF
:100380008093190190931A01A0931B01B0931C0153
:1003900000000F900F900F900F90DF91CF91089574
:1003A000CF93DF93CDB7DEB781E890E02BE0FC017F
:1003B000208388E890E02DE730E0FC013183208342
:1003C0008FE690E022E0FC01208384E890E0FC01CD
:1003D000118210828091000190910101A09102018F
:1003E000B09103018093190190931A01A0931B010E
:1003F000B0931C018FE590E02FE530E0F9012081FA
:100400002068FC0120830000DF91CF910895CF93F5
:10041000DF93CDB7DEB781E890E0FC0110820000E9
:10042000DF91CF910895CF93DF93CDB7DEB781E011
:10043000809318010000DF91CF9108951F920F92D1
:1004400000905F000F92112400905B000F922F9399
:100450003F934F935F936F937F938F939F93AF934C
:10046000BF93EF93FF93CF93DF93CDB7DEB7809128
:10047000190190911A01A0911B01B0911C010197E3
:10048000A109B1098093190190931A01A0931B014E
:10049000B0931C018091190190911A01A0911B0148
:1004A000B0911C01892B8A2B8B2B91F40E94130293
:1004B0008091000190910101A0910201B09103018E
:1004C0008093190190931A01A0931B01B0931C0112
:1004D0000000DF91CF91FF91EF91BF91AF919F917C
:1004E0008F917F916F915F914F913F912F910F90DD
:1004F00000925B000F9000925F000F901F90189584
:10050000CF93DF9300D01F92CDB7DEB789837B8373
:100510006A8389818A3031F48A819B81BC018DE0B4
:100520000E94800280EC90E0FC018081882F90E0A6
:1005300080729927892BB1F386EC90E02981FC0128
:10054000208380E090E00F900F900F90DF91CF918B
:100550000895CF93DF93CDB7DEB72C970FB6F894FD
:10056000DEBF0FBECDBF6D837E838F8398872987C3
:100570003A874B875C878D819E81AF81B8852985BD
:100580003A854B855C85BC01CD010E942B05DC01C1
:10059000CB0189839A83AB83BC8389819A81AB81A8
:1005A000BC81892B8A2B8B2B29F489859A85AB8575
:1005B000BC8511C089859A85AB85BC858D839E835A
:1005C000AF83B88789819A81AB81BC8189879A87FB
:1005D000AB87BC87D0CFBC01CD012C960FB6F89469
:1005E000DEBF0FBECDBFDF91CF910895CF93DF93D4
:1005F00000D01F92CDB7DEB79B838A830E94AE00E6
:1006000089838A819B818130910599F1823091059E
:1006100009F454C0892B09F054C08981282F30E097
:1006200080911D01882F90E08E5E9E4FFC0180819D
:10063000082E000C990B2817390799F480911D0199
:10064000853051F080911D018F5F80931D0181E005
:1006500090E09B838A8338C082E090E09B838A830A
:1006600033C08981882311F010921D011B821A82E8
:100670002BC00E94AE0089838981882319F41B82D4
:100680001A8222C08981282F30E080911D01882F95
:1006900090E001978E5E9E4FFC018081082E000C39
:1006A000990B2817390729F481E090E09B838A830E
:1006B0000BC01B821A8210921D0106C01B821A8277
:1006C00003C01B821A8200008A819B8181309105C0
:1006D00051F0029751F485E290E021E0FC01208383
:1006E00010921D0103C0000001C000008A819B819F
:1006F0000F900F900F90DF91CF910895CF93DF93DC
:1007000000D0CDB7DEB79A83898389819A8100971B
:1007100081F00197E1F483E290E0FC01808188237D
:100720001CF01A82198218C081E090E09A838983B4
:1007300013C083E290E0FC01808188231CF01A82C0
:1007400019820AC081E090E09A83898305C081E024
:1007500090E09A838983000089819A81892B29F40A
:1007600085E290E0FC01108201C0000089819A813D
:100770000F900F90DF91CF9108950F931F93CF9318
:10078000DF93CDB7DEB72F970FB6F894DEBF0FBE5D
:10079000CDBF87E290E020EFFC01208388E290E06B
:1007A0002FE0FC01208384E290E02FE7FC0120830E
:1007B00085E290E0FC0110828EE191E09D878C87BC
:1007C00089E291E09F878E8782E090E09A8789870F
:1007D0008FEF8B878B8580931E018AE090E0A0E0ED
:1007E000B0E080931F0190932001A0932101B0936A
:1007F000220180911F0190912001A0912101B091CF
:1008000022018093230190932401A0932501B093AA
:10081000260186EF92E090932801809327018B8533
:10082000809329018AE090E0A0E0B0E080932A0163
:1008300090932B01A0932C01B0932D0180912A015C
:1008400090912B01A0912C01B0912D0180932E014C
:1008500090932F01A0933001B09331018EE793E084
:1008600090933301809332018C859D85FC018181B9
:100870009281A381B48189839A83AB83BC831E82D6
:100880001D8225C08D819E81880F991F9E012F5F3B
:100890003F4F820F931F0B96FC0180819181FC01D9
:1008A000218132814381548189819A81AB81BC81CC
:1008B000BC01CD010E94A902DC01CB0189839A838E
:1008C000AB83BC838D819E8101969E838D832D8118
:1008D0003E8189859A8528173907A0F289819A81F6
:1008E000AB81BC81BC01CD010E94A2010E94D0015C
:1008F00018861F82A0C08F819885880F991F9E013E
:100900002F5F3F4F820F931F0B96FC0180819181D7
:10091000FC0125813681478150858F819885880F1C
:10092000991FBE016F5F7F4F860F971F0B96FC01CB
:1009300080819181FC0181819281A381B4812817FA
:1009400039074A075B0708F445C08F819885880FEF
:10095000991F9E012F5F3F4F820F931F0B96FC0143
:10096000008111818F819885880F991F9E012F5FCB
:100970003F4F820F931F0B96FC0180819181FC01F8
:10098000218532858F819885880F991FAE014F5F31
:100990005F4F840F951F0B96FC0180819181FC01B4
:1009A0008081082E000C990BF9010995F8018083CC
:1009B0008F819885880F991F9E012F5F3F4F820F6F
:1009C000931F0B96FC0180819181FC011582168298
:1009D000178210868F819885880F991F9E012F5F3F
:1009E0003F4F820F931F0B96FC01608171818F81B5
:1009F0009885880F991F9E012F5F3F4F820F931F8D
:100A00000B96FC0180819181FC0125813681478113
:100A1000508589819A81AB81BC81820F931FA41F6D
:100A2000B51FFB0185839683A783B0878F81988547
:100A3000019698878F832F81388589859A85281715
:100A4000390708F458CF0000809118018823E1F39A
:100A5000109218014DCFA1E21A2EAA1BBB1BFD015B
:100A60000DC0AA1FBB1FEE1FFF1FA217B307E4078D
:100A7000F50720F0A21BB30BE40BF50B661F771FE5
:100A8000881F991F1A9469F76095709580959095C5
:0E0A90009B01AC01BD01CF010895F894FFCF8A
:100A9E0001000000000000020000000080020000C3
:080AAE0000002331323334351E
:00000001FF
