:100000000C9446000C9465000C9465000C946500FB
:100010000C9465000C9465000C9465000C946500CC
:100020000C9465000C9465000C9465000C946500BC
:100030000C9465000C941E020C9465000C946500F1
:100040000C9465000C9465000C9465000C9465009C
:100050000C9465000C9465000C9465000C9465008C
:100060000C9465000C9465000C9465000C9465007C
:100070000C9465000C9465000C9465000C9465006C
:100080000C9465000C9465000C94650011241FBE4F
:10009000CFEFD0E4DEBFCDBF12E0A0E0B1E0ECECEA
:1000A000F0E100E00BBF02C007900D92AA33B10748
:1000B000D9F722E0AAE3B2E001C01D92A636B2074A
:1000C000E1F70E940F050C9464080C940000CF9394
:1000D000DF9300D01F92CDB7DEB789836A834B834D
:1000E0008B81882371F08A81282F30E081E090E0B5
:1000F00002C0880F991F2A95E2F7982F8981892BD2
:100100000EC08A81282F30E081E090E002C0880F85
:10011000991F2A95E2F7982F9095898189230F904E
:100120000F900F90DF91CF910895CF93DF9300D080
:10013000CDB7DEB789836A838A81282F30E081E0DA
:1001400090E002C0880F991F2A95E2F7982F8981C5
:1001500089230F900F90DF91CF9108950F931F93F4
:10016000CF93DF93CDB7DEB708E210E040E064E064
:100170008FEF0E946700F8018083000086E290E024
:10018000FC018081809560E00E949500882311F039
:1001900081E3D3C086E290E0FC018081809561E03C
:1001A0000E949500882311F084E3C7C086E290E0A6
:1001B000FC018081809562E00E949500882311F007
:1001C00087E3BBC086E290E0FC018081809563E01C
:1001D0000E949500882311F08AE2AFC008E210E087
:1001E00040E065E08FEF0E946700F8018083000027
:1001F00086E290E0FC018081809560E00E9495009D
:10020000882311F082E399C086E290E0FC018081AE
:10021000809561E00E949500882311F085E38DC0F0
:1002200086E290E0FC018081809562E00E9495006A
:10023000882311F088E381C086E290E0FC01808190
:10024000809563E00E949500882311F080E375C0DB
:1002500008E210E040E066E08FEF0E946700F801DE
:100260008083000086E290E0FC018081809560E060
:100270000E949500882311F083E35FC086E290E03E
:10028000FC018081809561E00E949500882311F037
:1002900086E353C086E290E0FC018081809562E0B5
:1002A0000E949500882311F089E347C086E290E020
:1002B000FC018081809563E00E949500882311F005
:1002C00083E23BC008E210E040E067E08FEF0E946D
:1002D0006700F8018083000086E290E0FC018081E5
:1002E000809560E00E949500882311F081E425C08C
:1002F00086E290E0FC018081809561E00E9495009B
:10030000882311F082E419C086E290E0FC0180812C
:10031000809562E00E949500882311F083E40DC06F
:1003200086E290E0FC018081809563E00E94950068
:10033000882311F084E401C080E0DF91CF911F9108
:100340000F910895CF93DF9300D000D0CDB7DEB7E3
:1003500069837A838B839C8389819A81AB81BC81F9
:100360008093000190930101A0930201B0930301D7
:100370008091000190910101A0910201B0910301CF
:1003800080933B0290933C02A0933D02B0933E02C7
:1003900000000F900F900F900F90DF91CF91089574
:1003A000CF93DF93CDB7DEB781E890E02BE0FC017F
:1003B000208388E890E02DE730E0FC013183208342
:1003C0008FE690E022E0FC01208384E890E0FC01CD
:1003D000118210828091000190910101A09102018F
:1003E000B091030180933B0290933C02A0933D02A5
:1003F000B0933E028FE590E02FE530E0F9012081D7
:100400002068FC0120830000DF91CF910895CF93F5
:10041000DF93CDB7DEB781E890E0FC0110820000E9
:10042000DF91CF910895CF93DF93CDB7DEB781E011
:1004300080933A020000DF91CF9108951F920F92AE
:1004400000905F000F92112400905B000F922F9399
:100450003F934F935F936F937F938F939F93AF934C
:10046000BF93EF93FF93CF93DF93CDB7DEB7809128
:100470003B0290913C02A0913D02B0913E02019757
:10048000A109B10980933B0290933C02A0933D02E5
:10049000B0933E0280913B0290913C02A0913D02BC
:1004A000B0913E02892B8A2B8B2B91F40E94130270
:1004B0008091000190910101A0910201B09103018E
:1004C00080933B0290933C02A0933D02B0933E0286
:1004D0000000DF91CF91FF91EF91BF91AF919F917C
:1004E0008F917F916F915F914F913F912F910F90DD
:1004F00000925B000F9000925F000F901F90189584
:10050000CF93DF9300D01F92CDB7DEB789837B8373
:100510006A8389818A3031F48A819B81BC018DE0B4
:100520000E94800280EC90E0FC018081882F90E0A6
:1005300080729927892BB1F386EC90E02981FC0128
:10054000208380E090E00F900F900F90DF91CF918B
:1005500008950F931F93CF93DF9300D000D0CDB7B2
:10056000DEB769837A838B839C838091410290916B
:100570004202A0914302B09144029C01AD01698105
:100580007A818B819C810E94D006882309F477C0F0
:1005900020E030E0A90169817A818B819C810E94F1
:1005A000D006882351F481E990E021E930E0F90197
:1005B00020812870FC01208309C081E990E021E9B5
:1005C00030E0F90120812360FC01208328E539E334
:1005D00044E75FE369817A818B819C810E94D00628
:1005E000882344F488E990E02FEF3FEFFC0131834A
:1005F000208334C020E034E244EF56E469817A81FC
:100600008B819C810E94F207181634F488E990E0EF
:10061000FC011182108222C008E910E020E030E0E5
:1006200040E053E469817A818B819C810E94F707C5
:10063000DC01CB019C01AD0160E074E284EF9AE43F
:100640000E94D506DC01CB01BC01CD010E94470709
:10065000DC01CB010197F8019183808384E990E06C
:10066000FC011182108289819A81AB81BC818093C7
:10067000410290934202A0934302B09344020000CF
:100680000F900F900F900F90DF91CF911F910F91CE
:100690000895CF93DF93CDB7DEB780E990E020E4F3
:1006A000FC01208381E990E02BE0FC01208360E0E5
:1006B00070E0CB010E94A9020000DF91CF91089564
:1006C000CF93DF93CDB7DEB780E990E0FC011082D5
:1006D00081E990E0FC0110820000DF91CF91089544
:1006E000CF93DF93CDB7DEB72C970FB6F894DEBF6C
:1006F0000FBECDBF6D837E838F83988729873A870E
:100700004B875C878D819E81AF81B88529853A852D
:100710004B855C85BC01CD010E94AE06DC01CB019E
:1007200089839A83AB83BC8389819A81AB81BC81A5
:10073000892B8A2B8B2B29F489859A85AB85BC85DF
:1007400011C089859A85AB85BC858D839E83AF83D7
:10075000B88789819A81AB81BC8189879A87AB8769
:10076000BC87D0CFBC01CD012C960FB6F894DEBF6C
:100770000FBECDBFDF91CF910895CF93DF9300D00F
:100780001F92CDB7DEB79B838A830E94AE00898318
:100790008A819B818130910599F18230910509F41C
:1007A00054C0892B09F054C08981282F30E08091F2
:1007B0003F02882F90E08E5E9E4FFC018081082EC4
:1007C000000C990B2817390799F480913F02853066
:1007D00051F080913F028F5F80933F0281E090E073
:1007E0009B838A8338C082E090E09B838A8333C0F6
:1007F0008981882311F010923F021B821A822BC03C
:100800000E94AE0089838981882319F41B821A8291
:1008100022C08981282F30E080913F02882F90E00C
:1008200001978E5E9E4FFC018081082E000C990B73
:100830002817390729F481E090E09B838A830BC055
:100840001B821A8210923F0206C01B821A8203C0CA
:100850001B821A8200008A819B818130910551F0B0
:10086000029751F485E290E021E0FC012083109290
:100870003F0203C0000001C000008A819B810F90ED
:100880000F900F90DF91CF910895CF93DF9300D019
:10089000CDB7DEB79A83898389819A81009781F0E9
:1008A0000197E1F483E290E0FC01808188231CF051
:1008B0001A82198218C081E090E09A83898313C05C
:1008C00083E290E0FC01808188231CF01A82198267
:1008D0000AC081E090E09A83898305C081E090E0BE
:1008E0009A838983000089819A81892B29F485E282
:1008F00090E0FC01108201C0000089819A810F9074
:100900000F90DF91CF910895CF93DF9300D0CDB7B3
:10091000DEB79A83898389819A818130910589F034
:10092000823091051CF4892B39F039C08230910551
:10093000C1F0039721F133C081E090E09A8389836D
:1009400031C080E290E0FC01808188232CF082E0BD
:1009500090E09A83898326C081E090E09A8389831E
:1009600021C080914002843128F482E090E09A8393
:10097000898318C083E090E09A83898313C080E262
:1009800090E0FC01808188232CF083E090E09A8342
:10099000898308C081E090E09A83898303C01A822A
:1009A0001982000089819A818130910549F0823055
:1009B00091056CF18230910559F0039711F128C02F
:1009C00060E070E0CB010E94A9021092400220C0BA
:1009D00080914002882F90E0880F991F880F991FFF
:1009E000885E9E4FFC0180819181A281B381BC0110
:1009F000CD010E94A902809140028F5F8093400246
:100A000007C060E070E0CB010E94A90201C00000B5
:100A100089819A810F900F90DF91CF9108950F9364
:100A20001F93CF93DF93CDB7DEB761970FB6F894DE
:100A3000DEBF0FBECDBF87E290E020EFFC01208338
:100A400088E290E02FE0FC01208384E290E02FE731
:100A5000FC01208385E290E0FC01108281E290E0BD
:100A6000FC01108282E290E02FEFFC01208386E0FF
:100A7000E4E3F2E0DE011C9601900D928A95E1F725
:100A800083E090E09A8789878FEF8B878B858093AF
:100A900045028AE090E0A0E0B0E0809346029093A7
:100AA0004702A0934802B093490280914602909178
:100AB0004702A0914802B091490280934A02909364
:100AC0004B02A0934C02B0934D028DEB93E09093B8
:100AD0004F0280934E028B85809350028AE090E013
:100AE000A0E0B0E08093510290935202A093530291
:100AF000B09354028091510290915202A0915302FE
:100B0000B09154028093550290935602A0935702DD
:100B1000B093580285E494E090935A02809359026E
:100B20008B8580935B0288EC90E0A0E0B0E080933E
:100B30005C0290935D02A0935E02B0935F0280918D
:100B40005C0290915D02A0915E02B0915F02809381
:100B5000600290936102A0936202B093630284E802
:100B600094E090936502809364028C859D85FC01DE
:100B700081819281A381B48189839A83AB83BC8371
:100B80001E821D8225C08D819E81880F991F9E0126
:100B90002F5F3F4F820F931F0B96FC018081918145
:100BA000FC01218132814381548189819A81AB8109
:100BB000BC81BC01CD010E947003DC01CB018983A3
:100BC0009A83AB83BC838D819E8101969E838D83A6
:100BD0002D813E8189859A8528173907A0F2898160
:100BE0009A81AB81BC81BC01CD010E94A2010E940F
:100BF000D0010E94490318861F82A0C08F8198856A
:100C0000880F991F9E012F5F3F4F820F931F0B96F6
:100C1000FC0180819181FC012581368147815085CD
:100C20008F819885880F991FBE016F5F7F4F860F58
:100C3000971F0B96FC0180819181FC01818192813B
:100C4000A381B481281739074A075B0708F445C018
:100C50008F819885880F991F9E012F5F3F4F820FCC
:100C6000931F0B96FC01008111818F819885880F5D
:100C7000991F9E012F5F3F4F820F931F0B96FC0120
:100C800080819181FC01218532858F819885880F33
:100C9000991FAE014F5F5F4F840F951F0B96FC01AC
:100CA00080819181FC018081082E000C990BF90153
:100CB0000995F80180838F819885880F991F9E017F
:100CC0002F5F3F4F820F931F0B96FC018081918114
:100CD000FC0115821682178210868F819885880FF5
:100CE000991F9E012F5F3F4F820F931F0B96FC01B0
:100CF000608171818F819885880F991F9E012F5F78
:100D00003F4F820F931F0B96FC0180819181FC0164
:100D1000258136814781508589819A81AB81BC814B
:100D2000820F931FA41FB51FFB0185839683A783A2
:100D3000B0878F819885019698878F832F8138851A
:100D400089859A852817390708F458CF00008091C3
:100D50003A028823E1F310923A024DCFA1E21A2E13
:100D6000AA1BBB1BFD010DC0AA1FBB1FEE1FFF1F4F
:100D7000A217B307E407F50720F0A21BB30BE40B9F
:100D8000F50B661F771F881F991F1A9469F76095E6
:100D90007095809590959B01AC01BD01CF010895A0
:100DA0000E947D0708F481E008950E94E9060C94F2
:100DB000B8070E94B10758F00E94AA0740F029F432
:100DC0005F3F29F00C94A10751110C94EC070C948F
:100DD000A7070E94C90768F39923B1F3552391F33C
:100DE000951B550BBB27AA2762177307840738F09A
:100DF0009F5F5F4F220F331F441FAA1FA9F335D0F7
:100E00000E2E3AF0E0E832D091505040E695001CAA
:100E1000CAF72BD0FE2F29D0660F771F881FBB1F64
:100E2000261737074807AB07B0E809F0BB0B802D42
:100E3000BF01FF2793585F4F3AF09E3F510578F06E
:100E40000C94A1070C94EC075F3FE4F3983ED4F3B5
:100E5000869577956795B795F7959F5FC9F7880F42
:100E6000911D9695879597F90895E1E0660F771F94
:100E7000881FBB1F621773078407BA0720F0621B25
:100E8000730B840BBA0BEE1F88F7E09508950E9450
:100E90004E076894B1110C94EC0708950E94D10795
:100EA00088F09F5798F0B92F9927B751B0F0E1F02B
:100EB000660F771F881F991F1AF0BA95C9F714C0DB
:100EC000B13091F00E94EB07B1E008950C94EB076C
:100ED000672F782F8827B85F39F0B93FCCF3869514
:100EE00077956795B395D9F73EF490958095709571
:100EF00061957F4F8F4F9F4F0895990F0008550FB1
:100F0000AA0BE0E8FEEF16161706E807F907C0F08F
:100F100012161306E407F50798F0621B730B840B97
:100F2000950B39F40A2661F0232B242B252B21F471
:100F300008950A2609F4A140A6958FEF811D811D11
:100F4000089597F99F6780E870E060E008959FEF4B
:100F500080EC089500240A94161617061806090650
:100F6000089500240A94121613061406050608951F
:100F7000092E0394000C11F4882352F0BB0F40F4A7
:100F8000BF2B11F460FF04C06F5F7F4F8F4F9F4FE7
:100F9000089557FD9058440F551F59F05F3F71F069
:100FA0004795880F97FB991F61F09F3F79F08795D0
:100FB0000895121613061406551FF2CF4695F1DF59
:100FC00008C0161617061806991FF1CF86957105E9
:100FD000610508940895E894BB2766277727CB011D
:100FE00097F908950E947D0708F48FEF08950E94F5
:100FF0000A080C94B8070E94AA0738F00E94B107AB
:1010000020F0952311F00C94A1070C94A70711244C
:101010000C94EC070E94C90770F3959FC1F3950FDC
:1010200050E0551F629FF001729FBB27F00DB11D6C
:10103000639FAA27F00DB11DAA1F649F6627B00DFC
:10104000A11D661F829F2227B00DA11D621F739FE5
:10105000B00DA11D621F839FA00D611D221F749FF3
:101060003327A00D611D231F849F600D211D822F3A
:10107000762F6A2F11249F5750409AF0F1F0882361
:101080004AF0EE0FFF1FBB1F661F771F881F91508E
:101090005040A9F79E3F510580F00C94A1070C9495
:1010A000EC075F3FE4F3983ED4F386957795679518
:1010B000B795F795E7959F5FC1F7FE2B880F911DB8
:0C10C0009695879597F90895F894FFCF56
:1010CC00010000000000000200000000800200008F
:1010DC000000233132333435A4D0824300000000A9
:1010EC00A4D08243000000007BD492437BD4924373
:1010FC0000000000A4D08243A4D082430000000072
:10110C00719DAE43719DAE4300000000A4D0A4437A
:10111C00A4D0A443A4D0A44300000000A4D08243D4
:10112C0000000000A4D08243000000007BD4924356
:10113C007BD4924300000000A4D08243A4D082430D
:10114C00000000000000C4430000C4430000000085
:10115C00719DAE43719DAE43719DAE430000000086
:10116C00A4D0824300000000A4D082430000000001
:10117C000000034400000344000000000000DC43B6
:10118C000000DC4300000000719DAE43719DAE4336
:10119C0000000000A4D0A443A4D0A443000000008D
:1011AC007BD492437BD49243000000007B14E94330
:1011BC00000000007B14E943000000000000DC4349
:1011CC000000DC4300000000719DAE43719DAE43F6
:1011DC00000000000000C4430000C44300000000F5
:1011EC00719DAE43719DAE43719DAE43719DAE43F7
:0A11FC0000000000450250025B02F3
:00000001FF
